{
  "contractName": "Votacion",
  "abi": [
    {
      "inputs": [],
      "stateMutability": "nonpayable",
      "type": "constructor"
    },
    {
      "anonymous": false,
      "inputs": [
        {
          "indexed": false,
          "internalType": "uint256",
          "name": "eleccionId",
          "type": "uint256"
        },
        {
          "indexed": false,
          "internalType": "uint256",
          "name": "candidatoId",
          "type": "uint256"
        },
        {
          "indexed": false,
          "internalType": "string",
          "name": "nombre",
          "type": "string"
        }
      ],
      "name": "CandidatoAgregado",
      "type": "event"
    },
    {
      "anonymous": false,
      "inputs": [
        {
          "indexed": false,
          "internalType": "uint256",
          "name": "eleccionId",
          "type": "uint256"
        },
        {
          "indexed": false,
          "internalType": "uint256",
          "name": "candidatoId",
          "type": "uint256"
        }
      ],
      "name": "CandidatoEliminado",
      "type": "event"
    },
    {
      "anonymous": false,
      "inputs": [
        {
          "indexed": false,
          "internalType": "uint256",
          "name": "eleccionId",
          "type": "uint256"
        },
        {
          "indexed": false,
          "internalType": "string",
          "name": "nombre",
          "type": "string"
        }
      ],
      "name": "EleccionCreada",
      "type": "event"
    },
    {
      "anonymous": false,
      "inputs": [
        {
          "indexed": false,
          "internalType": "uint256",
          "name": "eleccionId",
          "type": "uint256"
        },
        {
          "indexed": false,
          "internalType": "address",
          "name": "votante",
          "type": "address"
        },
        {
          "indexed": false,
          "internalType": "uint256",
          "name": "candidatoId",
          "type": "uint256"
        }
      ],
      "name": "VotoEmitido",
      "type": "event"
    },
    {
      "inputs": [],
      "name": "admin",
      "outputs": [
        {
          "internalType": "address",
          "name": "",
          "type": "address"
        }
      ],
      "stateMutability": "view",
      "type": "function",
      "constant": true
    },
    {
      "inputs": [
        {
          "internalType": "uint256",
          "name": "",
          "type": "uint256"
        },
        {
          "internalType": "uint256",
          "name": "",
          "type": "uint256"
        }
      ],
      "name": "candidatosPorEleccion",
      "outputs": [
        {
          "internalType": "uint256",
          "name": "id",
          "type": "uint256"
        },
        {
          "internalType": "string",
          "name": "nombre",
          "type": "string"
        },
        {
          "internalType": "uint256",
          "name": "votos",
          "type": "uint256"
        }
      ],
      "stateMutability": "view",
      "type": "function",
      "constant": true
    },
    {
      "inputs": [
        {
          "internalType": "uint256",
          "name": "",
          "type": "uint256"
        }
      ],
      "name": "elecciones",
      "outputs": [
        {
          "internalType": "uint256",
          "name": "id",
          "type": "uint256"
        },
        {
          "internalType": "string",
          "name": "nombre",
          "type": "string"
        },
        {
          "internalType": "bool",
          "name": "activa",
          "type": "bool"
        }
      ],
      "stateMutability": "view",
      "type": "function",
      "constant": true
    },
    {
      "inputs": [
        {
          "internalType": "uint256",
          "name": "",
          "type": "uint256"
        },
        {
          "internalType": "address",
          "name": "",
          "type": "address"
        }
      ],
      "name": "haVotadoEnEleccion",
      "outputs": [
        {
          "internalType": "bool",
          "name": "",
          "type": "bool"
        }
      ],
      "stateMutability": "view",
      "type": "function",
      "constant": true
    },
    {
      "inputs": [
        {
          "internalType": "string",
          "name": "_nombre",
          "type": "string"
        }
      ],
      "name": "crearEleccion",
      "outputs": [],
      "stateMutability": "nonpayable",
      "type": "function"
    },
    {
      "inputs": [
        {
          "internalType": "uint256",
          "name": "_eleccionId",
          "type": "uint256"
        },
        {
          "internalType": "string",
          "name": "_nombre",
          "type": "string"
        }
      ],
      "name": "agregarCandidato",
      "outputs": [],
      "stateMutability": "nonpayable",
      "type": "function"
    },
    {
      "inputs": [
        {
          "internalType": "uint256",
          "name": "_eleccionId",
          "type": "uint256"
        },
        {
          "internalType": "uint256",
          "name": "_candidatoId",
          "type": "uint256"
        }
      ],
      "name": "eliminarCandidato",
      "outputs": [],
      "stateMutability": "nonpayable",
      "type": "function"
    },
    {
      "inputs": [
        {
          "internalType": "uint256",
          "name": "_eleccionId",
          "type": "uint256"
        },
        {
          "internalType": "uint256",
          "name": "_candidatoId",
          "type": "uint256"
        }
      ],
      "name": "emitirVoto",
      "outputs": [],
      "stateMutability": "nonpayable",
      "type": "function"
    },
    {
      "inputs": [],
      "name": "totalElecciones",
      "outputs": [
        {
          "internalType": "uint256",
          "name": "",
          "type": "uint256"
        }
      ],
      "stateMutability": "view",
      "type": "function",
      "constant": true
    },
    {
      "inputs": [
        {
          "internalType": "uint256",
          "name": "_eleccionId",
          "type": "uint256"
        }
      ],
      "name": "totalCandidatos",
      "outputs": [
        {
          "internalType": "uint256",
          "name": "",
          "type": "uint256"
        }
      ],
      "stateMutability": "view",
      "type": "function",
      "constant": true
    },
    {
      "inputs": [
        {
          "internalType": "uint256",
          "name": "_eleccionId",
          "type": "uint256"
        },
        {
          "internalType": "uint256",
          "name": "_candidatoId",
          "type": "uint256"
        }
      ],
      "name": "consultarRecuentoVotos",
      "outputs": [
        {
          "internalType": "uint256",
          "name": "",
          "type": "uint256"
        }
      ],
      "stateMutability": "view",
      "type": "function",
      "constant": true
    }
  ],
  "bytecode": "0x6080604052348015600f57600080fd5b50600080546001600160a01b0319163317905561117a806100316000396000f3fe608060405234801561001057600080fd5b50600436106100a95760003560e01c806389502d881161007157806389502d88146101445780639524360714610157578063bc8c7e041461015f578063e8af035514610172578063ee872ce4146101b0578063f851a440146101c357600080fd5b8063057eacf6146100ae5780632567369b146100c35780635f4070e3146100ee57806371a0cd471461010f57806387c18f7414610131575b600080fd5b6100c16100bc366004610c27565b6101ee565b005b6100d66100d1366004610c6e565b610347565b6040516100e593929190610ccd565b60405180910390f35b6101016100fc366004610c6e565b610408565b6040519081526020016100e5565b61012261011d366004610cf8565b61043f565b6040516100e593929190610d1a565b61010161013f366004610cf8565b61050e565b6100c1610152366004610cf8565b6105c0565b600154610101565b6100c161016d366004610d43565b610828565b6101a0610180366004610d80565b600360209081526000928352604080842090915290825290205460ff1681565b60405190151581526020016100e5565b6100c16101be366004610cf8565b610951565b6000546101d6906001600160a01b031681565b6040516001600160a01b0390911681526020016100e5565b6000546001600160a01b031633148061021a57507310de37dd9562d9035cdd83134594ef706ca60d2433145b61023f5760405162461bcd60e51b815260040161023690610dbc565b60405180910390fd5b60015482106102605760405162461bcd60e51b815260040161023690610dff565b6001828154811061027357610273610e2e565b600091825260209091206002600390920201015460ff166102a65760405162461bcd60e51b815260040161023690610e44565b60008281526002602090815260408083208054825160608101845281815280850187815293810186905260018083018455928652939094208351600386029091019081559151908201906102fa9082610f10565b506040820151816002015550507f712f2ff294b1153e9344bd6fafec956b00f2df379b64fc8947ce6a99c60d8f4683828460405161033a93929190610fd6565b60405180910390a1505050565b6001818154811061035757600080fd5b6000918252602090912060039091020180546001820180549193509061037c90610e7b565b80601f01602080910402602001604051908101604052809291908181526020018280546103a890610e7b565b80156103f55780601f106103ca576101008083540402835291602001916103f5565b820191906000526020600020905b8154815290600101906020018083116103d857829003601f168201915b5050506002909301549192505060ff1683565b600154600090821061042c5760405162461bcd60e51b815260040161023690610dff565b5060009081526002602052604090205490565b6002602052816000526040600020818154811061045b57600080fd5b90600052602060002090600302016000915091505080600001549080600101805461048590610e7b565b80601f01602080910402602001604051908101604052809291908181526020018280546104b190610e7b565b80156104fe5780601f106104d3576101008083540402835291602001916104fe565b820191906000526020600020905b8154815290600101906020018083116104e157829003601f168201915b5050505050908060020154905083565b60015460009083106105325760405162461bcd60e51b815260040161023690610dff565b60008381526002602052604090205482106105855760405162461bcd60e51b815260206004820152601360248201527243616e64696461746f206e6f2076616c69646f60681b6044820152606401610236565b60008381526002602052604090208054839081106105a5576105a5610e2e565b90600052602060002090600302016002015490505b92915050565b6000546001600160a01b03163314806105ec57507310de37dd9562d9035cdd83134594ef706ca60d2433145b6106085760405162461bcd60e51b815260040161023690610dbc565b60015482106106295760405162461bcd60e51b815260040161023690610dff565b6001828154811061063c5761063c610e2e565b600091825260209091206002600390920201015460ff1661066f5760405162461bcd60e51b815260040161023690610e44565b60008281526002602052604090205481106106c55760405162461bcd60e51b8152602060048201526016602482015275456c2063616e64696461746f206e6f2065786973746560501b6044820152606401610236565b6000828152600260205260408120546106e090600190611014565b90508082146107a357600083815260026020526040902080548290811061070957610709610e2e565b906000526020600020906003020160026000858152602001908152602001600020838154811061073b5761073b610e2e565b60009182526020909120825460039092020190815560018082019061076290840182611027565b506002918201549082015560008481526020919091526040902080548391908290811061079157610791610e2e565b60009182526020909120600390910201555b60008381526002602052604090208054806107c0576107c06110fc565b600082815260208120600360001990930192830201818155906107e66001830182610b2b565b50600060029190910155905560408051848152602081018490527fd77fe80656e5205a41b0b4b38f0f0c800c26134dfe6959e9b82edff2ed44d580910161033a565b6000546001600160a01b031633148061085457507310de37dd9562d9035cdd83134594ef706ca60d2433145b6108705760405162461bcd60e51b815260040161023690610dbc565b60018054604080516060810182528281526020810185815291810184905282840184556000939093528251600383027fb10e2d527612073b26eecdfd717e6a320cf44b4afac2b0732d9fcbe2b7fa0cf68101918255915192939290917fb10e2d527612073b26eecdfd717e6a320cf44b4afac2b0732d9fcbe2b7fa0cf701906108f99082610f10565b50604091820151600291909101805460ff1916911515919091179055517f9cb21f4f50012922cd790cf5062ebbe4f927feff63af963068c36e6dc5ea6906906109459083908590611112565b60405180910390a15050565b60015482106109725760405162461bcd60e51b815260040161023690610dff565b6001828154811061098557610985610e2e565b600091825260209091206002600390920201015460ff166109b85760405162461bcd60e51b815260040161023690610e44565b600082815260036020908152604080832033845290915290205460ff1615610a325760405162461bcd60e51b815260206004820152602760248201527f59612068617320656d697469646f20747520766f746f20656e206573746120656044820152663632b1b1b4b7b760c91b6064820152608401610236565b6000828152600260205260409020548110610a855760405162461bcd60e51b815260206004820152601360248201527243616e64696461746f206e6f2076616c69646f60681b6044820152606401610236565b6000828152600260205260409020805482908110610aa557610aa5610e2e565b600091825260208220600260039092020101805491610ac38361112b565b909155505060008281526003602090815260408083203380855290835292819020805460ff191660011790558051858152918201929092529081018290527f4e7fa6b583893bc7ec081cb7b7d286eebd38ac1ae044c360d9fc9ccf8d939bce90606001610945565b508054610b3790610e7b565b6000825580601f10610b47575050565b601f016020900490600052602060002090610b629190610b64565b565b60005b80821115610b7d57600081840155600101610b67565b505050565b634e487b7160e01b600052604160045260246000fd5b600082601f830112610ba957600080fd5b813567ffffffffffffffff811115610bc357610bc3610b82565b604051601f8201601f19908116603f0116810167ffffffffffffffff81118282101715610bf257610bf2610b82565b604052818152838201602001851015610c0a57600080fd5b816020850160208301376000918101602001919091529392505050565b60008060408385031215610c3a57600080fd5b82359150602083013567ffffffffffffffff811115610c5857600080fd5b610c6485828601610b98565b9150509250929050565b600060208284031215610c8057600080fd5b5035919050565b6000815180845260005b81811015610cad57602081850181015186830182015201610c91565b506000602082860101526020601f19601f83011685010191505092915050565b838152606060208201526000610ce66060830185610c87565b90508215156040830152949350505050565b60008060408385031215610d0b57600080fd5b50508035926020909101359150565b838152606060208201526000610d336060830185610c87565b9050826040830152949350505050565b600060208284031215610d5557600080fd5b813567ffffffffffffffff811115610d6c57600080fd5b610d7884828501610b98565b949350505050565b60008060408385031215610d9357600080fd5b8235915060208301356001600160a01b0381168114610db157600080fd5b809150509250929050565b60208082526023908201527f4e6f207469656e6573207065726d69736f732064652061646d696e69737472616040820152623237b960e91b606082015260800190565b6020808252601590820152744c6120656c656363696f6e206e6f2065786973746560581b604082015260600190565b634e487b7160e01b600052603260045260246000fd5b6020808252601a908201527f4c6120656c656363696f6e206e6f206573746120616374697661000000000000604082015260600190565b600181811c90821680610e8f57607f821691505b602082108103610eaf57634e487b7160e01b600052602260045260246000fd5b50919050565b601f821115610b7d5782821115610b7d57806000526020600020601f840160051c6020851015610ee3575060005b90810190601f840160051c0360005b81811015610f0857600083820155600101610ef2565b505050505050565b815167ffffffffffffffff811115610f2a57610f2a610b82565b610f3e81610f388454610e7b565b84610eb5565b6020601f821160018114610f755760008315610f5a5750848201515b600184901b600019600386901b1c198216175b855550610fcf565b600084815260208120601f198516915b82811015610fa55787850151825560209485019460019092019101610f85565b5084821015610fc35786840151600019600387901b60f8161c191681555b505060018360011b0184555b5050505050565b838152826020820152606060408201526000610ff56060830184610c87565b95945050505050565b634e487b7160e01b600052601160045260246000fd5b818103818111156105ba576105ba610ffe565b818103611032575050565b61103c8254610e7b565b67ffffffffffffffff81111561105457611054610b82565b61106281610f388454610e7b565b6000601f8211600181146110945760008315610f5a575081850154600184901b600019600386901b1c19821617610f6d565b600085815260209020601f19841690600086815260209020845b838110156110ce57828601548255600195860195909101906020016110ae565b50858310156110ec5781850154600019600388901b60f8161c191681555b5050505050600190811b01905550565b634e487b7160e01b600052603160045260246000fd5b828152604060208201526000610d786040830184610c87565b60006001820161113d5761113d610ffe565b506001019056fea2646970667358221220a32c5a1b4bc8f2440dcfcf009ab611e0b897d1a44699c8e2780da99897ae093c64736f6c63430008230033",
  "immutableReferences": {},
  "source": "// SPDX-License-Identifier: MIT\npragma solidity ^0.8.20;\n\ncontract Votacion {\n    address public admin; // Autoridad electoral\n\n    struct Candidato {\n        uint256 id;\n        string nombre;\n        uint256 votos;\n    }\n\n    struct Eleccion {\n        uint256 id;\n        string nombre;\n        bool activa;\n    }\n\n    // Listado de elecciones\n    Eleccion[] public elecciones;\n\n    // eleccionId => Lista de candidatos\n    mapping(uint256 => Candidato[]) public candidatosPorEleccion;\n\n    // eleccionId => (direccion_votante => haVotado)\n    mapping(uint256 => mapping(address => bool)) public haVotadoEnEleccion;\n\n    // Eventos para auditoría\n    event EleccionCreada(uint256 eleccionId, string nombre);\n    event CandidatoAgregado(uint256 eleccionId, uint256 candidatoId, string nombre);\n    event CandidatoEliminado(uint256 eleccionId, uint256 candidatoId);\n    event VotoEmitido(uint256 eleccionId, address votante, uint256 candidatoId);\n\n    constructor() {\n        admin = msg.sender;\n    }\n\n    modifier soloAdmin() {\n        require(\n            msg.sender == admin || msg.sender == 0x10de37dd9562D9035CDD83134594eF706CA60D24,\n            \"No tienes permisos de administrador\"\n        );\n        _;\n    }\n\n    // Crear una nueva elección\n    function crearEleccion(string memory _nombre) public soloAdmin {\n        uint256 eleccionId = elecciones.length;\n        elecciones.push(Eleccion(eleccionId, _nombre, true));\n        emit EleccionCreada(eleccionId, _nombre);\n    }\n\n    // Agregar candidato a una elección específica\n    function agregarCandidato(uint256 _eleccionId, string memory _nombre) public soloAdmin {\n        require(_eleccionId < elecciones.length, \"La eleccion no existe\");\n        require(elecciones[_eleccionId].activa, \"La eleccion no esta activa\");\n        \n        uint256 candidatoId = candidatosPorEleccion[_eleccionId].length;\n        candidatosPorEleccion[_eleccionId].push(Candidato(candidatoId, _nombre, 0));\n        \n        emit CandidatoAgregado(_eleccionId, candidatoId, _nombre);\n    }\n\n    // Eliminar candidato de una elección específica (antes de votar)\n    function eliminarCandidato(uint256 _eleccionId, uint256 _candidatoId) public soloAdmin {\n        require(_eleccionId < elecciones.length, \"La eleccion no existe\");\n        require(elecciones[_eleccionId].activa, \"La eleccion no esta activa\");\n        require(_candidatoId < candidatosPorEleccion[_eleccionId].length, \"El candidato no existe\");\n        \n        uint256 ultimoIdx = candidatosPorEleccion[_eleccionId].length - 1;\n        if (_candidatoId != ultimoIdx) {\n            candidatosPorEleccion[_eleccionId][_candidatoId] = candidatosPorEleccion[_eleccionId][ultimoIdx];\n            candidatosPorEleccion[_eleccionId][_candidatoId].id = _candidatoId; // actualizamos su ID\n        }\n        candidatosPorEleccion[_eleccionId].pop();\n        \n        emit CandidatoEliminado(_eleccionId, _candidatoId);\n    }\n\n    // Emitir voto\n    function emitirVoto(uint256 _eleccionId, uint256 _candidatoId) public {\n        // 1. Verificación de que la elección existe y está activa\n        require(_eleccionId < elecciones.length, \"La eleccion no existe\");\n        require(elecciones[_eleccionId].activa, \"La eleccion no esta activa\");\n        \n        // 2. Verificación de integridad (un solo voto por elección)\n        require(!haVotadoEnEleccion[_eleccionId][msg.sender], \"Ya has emitido tu voto en esta eleccion\");\n        \n        // 3. Verificación de candidato válido\n        require(_candidatoId < candidatosPorEleccion[_eleccionId].length, \"Candidato no valido\");\n\n        candidatosPorEleccion[_eleccionId][_candidatoId].votos++;\n        haVotadoEnEleccion[_eleccionId][msg.sender] = true;\n\n        emit VotoEmitido(_eleccionId, msg.sender, _candidatoId);\n    }\n\n    // Consultas auxiliares\n    function totalElecciones() public view returns (uint256) {\n        return elecciones.length;\n    }\n\n    // Cantidad de candidatos en una elección específica\n    function totalCandidatos(uint256 _eleccionId) public view returns (uint256) {\n        require(_eleccionId < elecciones.length, \"La eleccion no existe\");\n        return candidatosPorEleccion[_eleccionId].length;\n    }\n\n    // Consultar votos de un candidato específico\n    function consultarRecuentoVotos(uint256 _eleccionId, uint256 _candidatoId) public view returns (uint256) {\n        require(_eleccionId < elecciones.length, \"La eleccion no existe\");\n        require(_candidatoId < candidatosPorEleccion[_eleccionId].length, \"Candidato no valido\");\n        return candidatosPorEleccion[_eleccionId][_candidatoId].votos;\n    }\n}\n\n\n",
  "sourcePath": "C:\\Users\\Usuario\\Downloads\\Proyecto Blockcahin\\contracts\\Votacion.sol",
  "compiler": {
    "name": "solc",
    "version": "0.8.35+commit.47b9dedd.Emscripten.clang"
  },
  "schemaVersion": "3.4.16",
  "updatedAt": "2026-05-21T22:14:34.588Z",
  "networkType": "ethereum",
  "devdoc": {
    "kind": "dev",
    "methods": {},
    "version": 1
  },
  "userdoc": {
    "kind": "user",
    "methods": {},
    "version": 1
  }
}