{
  "contractName": "Votacion",
  "abi": [
    {
      "inputs": [],
      "stateMutability": "nonpayable",
      "type": "constructor"
    },
    {
      "anonymous": false,
      "inputs": [
        {
          "indexed": false,
          "internalType": "address",
          "name": "votante",
          "type": "address"
        }
      ],
      "name": "VotanteHabilitado",
      "type": "event"
    },
    {
      "anonymous": false,
      "inputs": [
        {
          "indexed": false,
          "internalType": "address",
          "name": "votante",
          "type": "address"
        },
        {
          "indexed": false,
          "internalType": "uint256",
          "name": "opcionId",
          "type": "uint256"
        }
      ],
      "name": "VotoEmitido",
      "type": "event"
    },
    {
      "inputs": [],
      "name": "admin",
      "outputs": [
        {
          "internalType": "address",
          "name": "",
          "type": "address"
        }
      ],
      "stateMutability": "view",
      "type": "function"
    },
    {
      "inputs": [
        {
          "internalType": "address",
          "name": "",
          "type": "address"
        }
      ],
      "name": "haVotado",
      "outputs": [
        {
          "internalType": "bool",
          "name": "",
          "type": "bool"
        }
      ],
      "stateMutability": "view",
      "type": "function"
    },
    {
      "inputs": [
        {
          "internalType": "uint256",
          "name": "",
          "type": "uint256"
        }
      ],
      "name": "opciones",
      "outputs": [
        {
          "internalType": "uint256",
          "name": "id",
          "type": "uint256"
        },
        {
          "internalType": "string",
          "name": "nombre",
          "type": "string"
        },
        {
          "internalType": "uint256",
          "name": "votos",
          "type": "uint256"
        }
      ],
      "stateMutability": "view",
      "type": "function"
    },
    {
      "inputs": [
        {
          "internalType": "address",
          "name": "",
          "type": "address"
        }
      ],
      "name": "padronElectoral",
      "outputs": [
        {
          "internalType": "bool",
          "name": "",
          "type": "bool"
        }
      ],
      "stateMutability": "view",
      "type": "function"
    },
    {
      "inputs": [
        {
          "internalType": "address",
          "name": "_votante",
          "type": "address"
        }
      ],
      "name": "habilitarVotante",
      "outputs": [],
      "stateMutability": "nonpayable",
      "type": "function"
    },
    {
      "inputs": [
        {
          "internalType": "string",
          "name": "nombre",
          "type": "string"
        }
      ],
      "name": "agregarOpcion",
      "outputs": [],
      "stateMutability": "nonpayable",
      "type": "function"
    },
    {
      "inputs": [
        {
          "internalType": "uint256",
          "name": "opcionId",
          "type": "uint256"
        }
      ],
      "name": "emitirVoto",
      "outputs": [],
      "stateMutability": "nonpayable",
      "type": "function"
    },
    {
      "inputs": [
        {
          "internalType": "uint256",
          "name": "opcionId",
          "type": "uint256"
        }
      ],
      "name": "consultarRecuentoVotos",
      "outputs": [
        {
          "internalType": "uint256",
          "name": "",
          "type": "uint256"
        }
      ],
      "stateMutability": "view",
      "type": "function"
    },
    {
      "inputs": [],
      "name": "totalOpciones",
      "outputs": [
        {
          "internalType": "uint256",
          "name": "",
          "type": "uint256"
        }
      ],
      "stateMutability": "view",
      "type": "function"
    }
  ],
  "bytecode": "0x6080604052348015600f57600080fd5b50600080546001600160a01b031916331790556109b9806100316000396000f3fe608060405234801561001057600080fd5b50600436106100935760003560e01c80639bae5522116100665780639bae55221461011d578063d57e8c3f14610130578063d69c670514610153578063edfde99c14610166578063f851a4401461017957600080fd5b806317262d8a14610098578063355062cb146100c357806386e88e7d146100f6578063920dbb6714610108575b600080fd5b6100ab6100a6366004610636565b6101a4565b6040516100ba9392919061064f565b60405180910390f35b6100e66100d13660046106ab565b60026020526000908152604090205460ff1681565b60405190151581526020016100ba565b6001545b6040519081526020016100ba565b61011b6101163660046106f1565b610262565b005b61011b61012b366004610636565b610330565b6100e661013e3660046106ab565b60036020526000908152604090205460ff1681565b6100fa610161366004610636565b6104d4565b61011b6101743660046106ab565b61054f565b60005461018c906001600160a01b031681565b6040516001600160a01b0390911681526020016100ba565b600181815481106101b457600080fd5b600091825260209091206003909102018054600182018054919350906101d9906107aa565b80601f0160208091040260200160405190810160405280929190818152602001828054610205906107aa565b80156102525780601f1061022757610100808354040283529160200191610252565b820191906000526020600020905b81548152906001019060200180831161023557829003601f168201915b5050505050908060020154905083565b6000546001600160a01b031633146102955760405162461bcd60e51b815260040161028c906107e4565b60405180910390fd5b60018054604080516060810182528281526020810185815260009282018390528385018555939091528051600383027fb10e2d527612073b26eecdfd717e6a320cf44b4afac2b0732d9fcbe2b7fa0cf6810191825593519293919290917fb10e2d527612073b26eecdfd717e6a320cf44b4afac2b0732d9fcbe2b7fa0cf7019061031f9082610883565b506040820151816002015550505050565b3360009081526003602052604090205460ff166103a25760405162461bcd60e51b815260206004820152602a60248201527f4e6f206573746173207265676973747261646f20656e20656c20706164726f6e60448201526908195b1958dd1bdc985b60b21b606482015260840161028c565b3360009081526002602052604090205460ff16156103fb5760405162461bcd60e51b815260206004820152601660248201527559612068617320656d697469646f20747520766f746f60501b604482015260640161028c565b60015481106104475760405162461bcd60e51b81526020600482015260186024820152774f7063696f6e20646520766f746f206e6f2076616c69646160401b604482015260640161028c565b6001818154811061045a5761045a610946565b6000918252602082206002600390920201018054916104788361095c565b909155505033600081815260026020908152604091829020805460ff19166001179055815192835282018390527f1dc3d1770837c5795d3ada64c0066d53604423c8e5d703a8afc482811c9b2ec991015b60405180910390a150565b60015460009082106105235760405162461bcd60e51b81526020600482015260186024820152774f7063696f6e20646520766f746f206e6f2076616c69646160401b604482015260640161028c565b6001828154811061053657610536610946565b9060005260206000209060030201600201549050919050565b6000546001600160a01b031633146105795760405162461bcd60e51b815260040161028c906107e4565b6001600160a01b03811660009081526003602052604090205460ff16156105e25760405162461bcd60e51b815260206004820152601d60248201527f456c20766f74616e7465207961206573746120686162696c697461646f000000604482015260640161028c565b6001600160a01b038116600081815260036020908152604091829020805460ff1916600117905590519182527f96c3a038b8849cd7c34b5b6c3cf353eb574dd98a58e65532bf6366bf722e85ab91016104c9565b60006020828403121561064857600080fd5b5035919050565b838152606060208201526000835180606084015260005b818110156106835760208187018101516080868401015201610666565b506000608082850101526080601f19601f830116840101915050826040830152949350505050565b6000602082840312156106bd57600080fd5b81356001600160a01b03811681146106d457600080fd5b9392505050565b634e487b7160e01b600052604160045260246000fd5b60006020828403121561070357600080fd5b813567ffffffffffffffff81111561071a57600080fd5b8201601f8101841361072b57600080fd5b803567ffffffffffffffff811115610745576107456106db565b604051601f8201601f19908116603f0116810167ffffffffffffffff81118282101715610774576107746106db565b60405281815282820160200186101561078c57600080fd5b81602084016020830137600091810160200191909152949350505050565b600181811c908216806107be57607f821691505b6020821081036107de57634e487b7160e01b600052602260045260246000fd5b50919050565b60208082526023908201527f4e6f207469656e6573207065726d69736f732064652061646d696e69737472616040820152623237b960e91b606082015260800190565b601f82111561087e578282111561087e57806000526020600020601f840160051c6020851015610855575060005b90810190601f840160051c0360005b8181101561087a57600083820155600101610864565b5050505b505050565b815167ffffffffffffffff81111561089d5761089d6106db565b6108b1816108ab84546107aa565b84610827565b6020601f8211600181146108e557600083156108cd5750848201515b600019600385901b1c1916600184901b17845561093f565b600084815260208120601f198516915b8281101561091557878501518255602094850194600190920191016108f5565b50848210156109335786840151600019600387901b60f8161c191681555b505060018360011b0184555b5050505050565b634e487b7160e01b600052603260045260246000fd5b60006001820161097c57634e487b7160e01b600052601160045260246000fd5b506001019056fea264697066735822122060b5516f23df2e5486f6d39344c0f5b4fe771e691d16de69b7bf116cc2da7d0c64736f6c63430008230033",
  "immutableReferences": {},
  "source": "// SPDX-License-Identifier: MIT\npragma solidity ^0.8.20;\n\ncontract Votacion {\n    address public admin; // Autoridad electoral (ej. el que despliega el contrato)\n\n    struct Opcion {\n        uint256 id;\n        string nombre;\n        uint256 votos;\n    }\n\n    Opcion[] public opciones;\n    mapping(address => bool) public haVotado;\n    \n    // SPRINT 2: Módulo de Registro y Elegibilidad\n    // Este mapping guarda quién ha sido validado (DNI, edad, residencia)\n    mapping(address => bool) public padronElectoral;\n\n    // Eventos para auditoría\n    event VotanteHabilitado(address votante);\n    event VotoEmitido(address votante, uint256 opcionId);\n\n    constructor() {\n        admin = msg.sender; // El que crea el contrato es el administrador\n    }\n\n    // Restringe funciones solo para la autoridad electoral\n    modifier soloAdmin() {\n        require(msg.sender == admin, \"No tienes permisos de administrador\");\n        _;\n    }\n\n    // SPRINT 2: Función para registrar ciudadanos tras verificar requisitos\n    function habilitarVotante(address _votante) public soloAdmin {\n        require(!padronElectoral[_votante], \"El votante ya esta habilitado\");\n        padronElectoral[_votante] = true;\n        emit VotanteHabilitado(_votante);\n    }\n\n    // Solo el admin puede agregar opciones (candidatos)\n    function agregarOpcion(string memory nombre) public soloAdmin {\n        uint256 opcionId = opciones.length;\n        opciones.push(Opcion(opcionId, nombre, 0));\n    }\n\n    // Emisión de voto con doble verificación\n    function emitirVoto(uint256 opcionId) public {\n        // 1. Verificación de identidad/elegibilidad\n        require(padronElectoral[msg.sender], \"No estas registrado en el padron electoral\");\n        \n        // 2. Verificación de integridad (un solo voto)\n        require(!haVotado[msg.sender], \"Ya has emitido tu voto\");\n        \n        require(opcionId < opciones.length, \"Opcion de voto no valida\");\n\n        opciones[opcionId].votos++;\n        haVotado[msg.sender] = true;\n\n        emit VotoEmitido(msg.sender, opcionId);\n    }\n\n    function consultarRecuentoVotos(uint256 opcionId) public view returns (uint256) {\n        require(opcionId < opciones.length, \"Opcion de voto no valida\");\n        return opciones[opcionId].votos;\n    }\n\n    function totalOpciones() public view returns (uint256) {\n        return opciones.length;\n    }\n}\n",
  "sourcePath": "C:\\Users\\Usuario\\Downloads\\Proyecto Blockcahin\\contracts\\Votacion.sol",
  "compiler": {
    "name": "solc",
    "version": "0.8.35+commit.47b9dedd.Emscripten.clang"
  },
  "schemaVersion": "3.4.16",
  "updatedAt": "2026-05-13T17:07:57.280Z",
  "devdoc": {
    "kind": "dev",
    "methods": {},
    "version": 1
  },
  "userdoc": {
    "kind": "user",
    "methods": {},
    "version": 1
  }
}